:100000005024002019010000150100001501000016
:1000100000000000000000000000000000000000E0
:1000200000000000000000000000000015010000BA
:100030000000000000000000150100001501000094
:100040001501000015010000150100001501000058
:100050001501000015010000150100001501000048
:100060001501000015010000150100001501000038
:100070001501000015010000150100001501000028
:100080001501000015010000150100001501000018
:100090001501000000000000000000001501000034
:1000A00015010000150100001501000015010000F8
:1000B0000000000010B5064C2378002B07D1054B3B
:1000C000002B02D0044800E000BF0123237010BDC4
:1000D0003004002000000000D0050000084B10B5DF
:1000E000002B03D00749084800E000BF0748036819
:1000F000002B00D110BD064B002BFBD09847F9E731
:100100000000000034040020D0050000D0050000ED
:1001100000000000FEE7C04670B52E4B2E4A9A4202
:1001200003D02E4B2B4A9A4204D32D4B2D4A9A4290
:1001300010D31EE02C4A294B03339B1A9B08013332
:100140009B000022234824498C58845004329A4250
:10015000FAD1EAE7254A224B03339B1A9B08013365
:100160009B0000221F4800211418216004329A428B
:10017000FAD11F4AFF211F4B8B439360FD39902317
:100180005B001D4AD1501D48C3780324A3430222BB
:100190001343C370C3780C26B34308210B43C370C9
:1001A000174B987B3025A8430500202028439873DF
:1001B000987BB04301439973997BA1430A439A7397
:1001C000104A516880230B4353600F4B98470F4BE5
:1001D0009847FEE700000020D00500003004002012
:1001E0004C040020300400200400002034040020CF
:1001F00000ED00E0000000000070004100500041F0
:1002000000480041004000412D040000B1030000FF
:1002100057494B681E2293431C3A13434B60554A7F
:10022000916908230B439361534B544A9A82998AEC
:1002300002220A439A8219000222CB681A42FCD099
:1002400001224F4B1A701A00012113780B4203D080
:1002500053785BB2002BF8DB0122494B9A601A00FD
:1002600053785BB2002BFBDB464A454B5A601A00C1
:1002700053785BB2002BFBDB8222D201404B5A80C9
:100280001A0053785BB2002BFBDB3B4A938C802136
:100290008B43938411001022CB681A42FCD03A4A57
:1002A000354BDA6219001022CB681A42FCD0324A70
:1002B000918C364B0B43938411001022CB681A4269
:1002C000FCD02D4A918C02230B4393848021402043
:1002D000D3681942FCD0D3681842F9D026491022BD
:1002E000CB681A42FCD00022254B9A601A00537842
:1002F0005BB2002BFBDB264A214B5A601A00537875
:100300005BB2002BFBDB1C4A116A224B0B408021A5
:1003100049000B431362136A80398B431362184BF5
:1003200003229A601C4A5A601A0053785BB2002B71
:10033000FBDB104B00221A725A729A72DA72174A59
:10034000174B1A60174B1968174B1B68DA0E8B0690
:100350005B0F18024901FF230B4013430343134A69
:100360001385034A516880230B4353607047C0468E
:100370000040004100040040000800400C0600005E
:10038000000C004001050100B805FF7D040A0000D3
:1003900000070300FFFCFFFF03060100006CDC0206
:1003A00000000020246080002060800000400042A7
:1003B00010B5024B9847024B9847FEE71102000028
:1003C000C503000010B5164B4F20195C01221143E4
:1003D00019540530195C114319544721585C0243E4
:1003E0005A54104C1A5D0F20024050210A431A55EE
:1003F0000D4C1A5D024011431955B0241A5D02409C
:1004000040210A431A558020000298608021490348
:10041000996080229A60586199619A6110BDC046C6
:1004200000440041308000003000100070B50D4ED7
:100430000D4D0024AD1BAD1005D0A300F3580134C1
:100440009847A542F9D100F0B1F8084E084D0024B4
:10045000AD1BAD1005D0A300F35801349847A54259
:10046000F9D170BDB8050000B8050000B80500005E
:10047000C0050000034B10B5002B02D0024800F06D
:1004800005F810BD000000009D04000010B501003B
:1004900000230022002000F01BF810BD70B5094BAE
:1004A000094CE41AA41009D0084AA518AD00ED18AB
:1004B0002B68013C9847043D002CF9D100F080F8EE
:1004C00070BDC046CC050000D0050000FFFFFF3F17
:1004D000F8B544465F4656464D469B462F4BF0B412
:1004E0001C68A4235B000500E0580E00904600281D
:1004F0004BD043681F2B0DDC5C1C002D21D1023337
:100500009B0044601E5000203CBC90469946A24689
:10051000AB46F8BD224B002B3CD0C820400000E089
:1005200000BF002836D0A42200235200A158436007
:100530000160A05040328350043283500124002DCA
:10054000DDD09A0091468144424688214F467A5038
:10055000C42252009046804442468739994012682E
:100560008A460A43944642466146116084224946BF
:100570005F4652008F50022DC1D1020055468D3288
:10058000FF3211680D431560B9E720004D30FF3090
:10059000E050AEE701204042B6E7C046A8050000A3
:1005A000000000004300000008000020F8B5C0462D
:1005B000F8BC08BC9E46704775040000DD000000D2
:1005C000F8B5C046F8BC08BC9E467047B5000000B0
:1005D00040420F000000000000000000F402002074
:1005E0005C030020C40300200000000000000000A5
:1005F00000000000000000000000000000000000FB
:10060000000000000000000000000000A405000041
:1006100000000000000000000000000000000000DA
:1006200000000000000000000000000000000000CA
:1006300000000000000000000000000000000000BA
:1006400000000000000000000000000000000000AA
:10065000000000000000000000000000000000009A
:10066000000000000000000000000000000000008A
:10067000000000000000000000000000000000007A
:1006800001000000000000000E33CDAB34126DE617
:10069000ECDE05000B000000000000000000000080
:1006A000000000000000000000000000000000004A
:1006B000000000000000000000000000000000003A
:1006C000000000000000000000000000000000002A
:1006D000000000000000000000000000000000001A
:00000001FF
